:101D810044006900000000440065000000004100BB
:021D91006400EC
:10000300EF4E600F7D027CEFDCFEDDFCEF1F70F036
:030013001E80ED5F
:0100160022C7
:101CB600D2A3C2A37F147E00120003D2A320A3FDE9
:101CC6007F1BDFFE30A3037F01227F25DFFE20A3DB
:091CD600037F012220A3FD7F0021
:011CDF0022E2
:101B9200E4FFFEEEC3940874809480502330A3FDCA
:101BA20030A31A7D11DDFE30A3F6C374079EFDF843
:101BB2007401088002C333D8FC4FFF80E30E80D348
:011BC2002200
:101BC300E4FFFEEEC3940874809480502330A3FD99
:101BD30030A31A7D11DDFE30A3F6C374079EFDF812
:101BE3007401088002C333D8FC4FFF80E30E80D317
:011BF30022CF
:101BF400E4FFFEEEC3940874809480502330A3FD68
:101C040030A31A7D11DDFE30A3F6C374079EFDF8E0
:101C14007401088002C333D8FC4FFF80E30E80D3E5
:011C2400229D
:101C2500E4FFFEEEC3940874809480502330A3FD36
:101C350030A31A7D11DDFE30A3F6C374079EFDF8AF
:101C45007401088002C333D8FC4FFF80E30E80D3B4
:011C5500226C
:1017A800121CB6121B92AC07121BC3AB07121BF418
:1017B800900000EFF0121C25A3EFF0900000E0FF6E
:1017C80030E70F9000647401F0EF547F900000F050
:1017D8008005E4900064F0ECAD03FCEC120AC390C1
:1017E8000069120DCD900000E0FEA3E0FDEEFCECD8
:1017F800120AC3900065120DCD900069E0FCA3E0C9
:10180800FDA3E0FEA3E0FFE4FBFA7920784112098A
:10181800A8900069120DCD900065E0FCA3E0FDA33F
:10182800E0FEA3E0FFE4FBFA792078411209A890D2
:051838000065020DCD6A
:10001E00323032332E31302E3232003A002D002063
:10002E0000256400252E316600202020202020216E
:10003E00222C20202020202000004020100C030025
:10004E000000010204186000000202FE9292FE02FD
:10005E0002FC04040404FC000008180F0804FF044A
:10006E0080631901010933C000000000FC444444C0
:10007E004546444444447C00004020180700FC449C
:10008E00444444444444FC000040504E4848FF4819
:10009E00484840F80000FF000000003E0202FF1238
:1000AE00221E000F40807F000000FE0222DA0600B2
:1000BE000000FF00000000000000FF08108847202D
:1000CE001807000718204080001060028C0000FE08
:1000DE009292929292FE00000004047E01407E42B3
:1000EE00427E427E42427E40001060028C00FE92B2
:1000FE009292929292FE00000004047E01444850B7
:10010E007F40407F50484440000000FC242424FCE3
:10011E00252624FC242424040040308F80844C5552
:10012E00252525554C80808000424AD26A46C00063
:10013E00F2121AD61212F2020040807F00010080E5
:10014E004F20180710204F8000404042CC0040A0A6
:10015E009E8282829EA02020000000003F90884058
:10016E00432C10284641808000101010FF10504282
:10017E005C407F404050CE00000444827F014044EA
:10018E00444444444444FF0000008060F80710904B
:10019E001011161010D0100000010000FF40404159
:1001AE005E4040704E4140400000000000000000E4
:1001BE00000000000000000000000000F800000039
:1001CE0000000000333000000000100C06100C067A
:1001DE0000000000000000000040C07840C07840E1
:1001EE0000043F04043F040400007088FC08300043
:1001FE0000001820FF211E0000F008F000E018009B
:10020E000000211C031E211E0000F0088870000053
:10021E00001E2123241927211010160E00000000A5
:10022E00000000000000000000000000E0180402C2
:10023E0000000000071820400000020418E0000033
:10024E00000040201807000000404080F080404031
:10025E00000202010F01020200000000F000000087
:10026E00000101011F01010100000000000000005B
:10027E000080B070000000000000000000000000D0
:10028E000000010101010101010000000000000059
:10029E0000003030000000000000000000806018F8
:1002AE0004006018060100000000E010080810E0CD
:1002BE0000000F102020100F00001010F80000009A
:1002CE00000020203F2020000000700808088870E1
:1002DE000000302824222130000030088888483061
:1002EE00000018202020110E000000C02010F80081
:1002FE000000070424243F240000F808888808081A
:10030E00000019212020110E0000E010888818002E
:10031E0000000F112020110E0000380808C8380800
:10032E00000000003F000000000070880808887080
:10033E0000001C222121221C0000E010080810E001
:10034E00000000312222110F00000000C0C000008A
:10035E0000000000303000000000000080000000AF
:10036E0000000080600000000000008040201008A7
:10037E000000010204081020004040404040404070
:10038E00000404040404040400000810204080004B
:10039E00000020100804020100007048080808F050
:1003AE00000000003036010000C030C828E810E020
:1003BE00000718272423140B000000C038E00000AB
:1003CE0000203C23020227382008F8888888700015
:1003DE0000203F202020110E00C0300808080838E9
:1003EE0000071820202010080008F808080810E060
:1003FE0000203F202020100F0008F88888E8081001
:10040E0000203F20202320180008F88888E80810D4
:10041E0000203F200003000000C03008080838000C
:10042E000007182020221E020008F808000008F815
:10043E0008203F210101213F20000808F80808008C
:10044E00000020203F2020000000000808F80808C7
:10045E0000C08080807F00000008F888C02818083F
:10046E0000203F20012638200008F8080000000078
:10047E0000203F20202020300008F8F800F8F8086F
:10048E0000203F003F003F200008F830C00008F871
:10049E0008203F200007183F00E01008080810E071
:1004AE00000F10202020100F0008F808080808F090
:1004BE0000203F210101010000E01008080810E0B3
:1004CE00000F18242438504F0008F8888888887048
:1004DE0000203F2000030C302000708808080838E8
:1004EE00000038202121221C00180808F8080818DE
:1004FE00000000203F2000000008F808000008F867
:10050E0008001F202020201F000878880000C8380F
:10051E0008000007380E010000F80800F80008F87F
:10052E0000033C0700073C03000818688080681829
:10053E000820302C03032C30200838C800C8380897
:10054E00000000203F2000000010080808C83808EE
:10055E00002038262120201800000000FE02020292
:10056E00000000007F40404000000C30C000000042
:10057E0000000000010638C00000020202FE00006A
:10058E0000004040407F0000000000040202020410
:10059E00000000000000000000000000000000004D
:1005AE000080808080808080800002020400000035
:1005BE00000000000000000000000080808080002D
:1005CE00000019242222223F2008F800808000001B
:1005DE0000003F112020110E0000000080808000DE
:1005EE0000000E112020201100000000808088F8ED
:1005FE0000000E112020103F20000080808080001F
:10060E0000001F222222221300008080F08888889A
:10061E00180020203F202000000000808080808075
:10062E0000006B94949493600008F8008080800022
:10063E0000203F210000203F2000809898000000FD
:10064E00000020203F20200000000000809898002D
:10065E000000C08080807F000008F800008080804D
:10066E0000203F24022D302000000808F800000072
:10067E00000020203F20200000808080808080802D
:10068E0000203F20003F20003F80800080808000BF
:10069E0000203F210000203F20000080808080004D
:1006AE0000001F202020201F00808000808000007E
:1006BE000080FFA12020110E0000000080808080AD
:1006CE0000000E112020A0FF80808080008080809E
:1006DE000020203F212000010000008080808080CB
:1006EE00000033242424241900008080E080800040
:1006FE00000000001F20200000808000000080808D
:10070E0000001F202020103F20808080000080806D
:10071E008000010E3008060100808000800080807D
:10072E00800F300C030C300F000080800080808022
:10073E00000020312E0E312000808080000080804D
:10074E008080818E701806010000808080808080FD
:10075E00000021302C2221300000000000807C029D
:10076E000200000000003F404000000000FF0000BB
:10077E000000000000FF0000000002027C8000006C
:10078E00000040403F00000000000601010202048C
:09079E000400000000000000004E
:101D930048003C000000000000005A4200440002DA
:1019CF001218C9121D32E4FBFA7D04FC7F04121AAF
:1019DF00457B017A007D047C007F15121A457B023E
:1019EF007A007D047C007F26121A457B037A007DE6
:1019FF00047C007F36121A457B047A007D047C003C
:101A0F007F47121A457BFF7A00791E7D067C007F87
:101A1F002E121583121CB67F147E00121DA4121DE8
:101A2F0032121E32121B03121370121E447FD07E0D
:061A3F000712000380EE17
:101E320053890F758B20758DD1C28FD2ABD2AFD2A1
:021E42008E22EE
:03001B0002165E6C
:10165E00C0E0C0F0C083C082C0D075D000C000C052
:10166E0001C002C003C004C005C006C007121C564C
:10167E00209239C390003DE0941090003CE094001D
:10168E00500EA3E004F0702490003CE004F0801CA7
:10169E00900043E024FFF0900042E034FFF0900011
:1016AE003DE024F0F090003CE034FFF0209339C38D
:1016BE0090003FE0941090003EE09400500EA3E0A6
:1016CE0004F0702490003EE004F0801C900043E093
:1016DE0004F07006900042E004F090003FE024F029
:1016EE00F090003EE034FFF0D007D006D005D004D5
:1016FE00D003D002D001D000D0D0D082D083D0F091
:03170E00D0E032F6
:101B0300309016121D0AC297E4FFEFC3940274804B
:101B13009480502FC2A40F80F1900042E0FCA3E018
:101B2300FDEC120AC3900069E0F8A3E0F9A3E0FA20
:101B3300A3E0FB120A4550089000447401F08003AF
:0A1B4300121D0A209004D297D2A4CC
:011B4D002275
:101370001217A87B067A007D047C00E4FF121A4550
:101380007B077A007D047C007F10121A457BFF7A70
:101390000079297D047C007F21121583900069E08B
:1013A000F8A3E0F9A3E0FAA3E0FBC000C001C0028B
:1013B000C003E4FFFE7D207C41900069A3A3A3E06D
:1013C00012089F120AFCE47B0AFAF9F8121B4EACD1
:1013D00000AD01AE02AF03E47B0AFAF9F8121B4E2E
:1013E000EC120ABED003D002D001D0001207AE909A
:1013F0000069120DCD7B017A007946900069E0FC0E
:10140000A3E0FDA3E0FEA3E0FF900006120DCD7D5A
:10141000047C007F31121711900064E07BFF6006AE
:101420007A00792B80047A00792D7D047C007F2856
:101430001215837B057A007D067C00E4FF121A45B5
:101440007B077A007D067C007F10121A457BFF7AAD
:101450000079297D067C007F21121583900065E0CC
:10146000F8A3E0F9A3E0FAA3E0FBC000C001C002CA
:10147000C003E4FFFE7D207C41900065A3A3A3E0B0
:1014800012089F120AFCE47B0AFAF9F8121B4EAC10
:1014900000AD01AE02AF03E47B0AFAF9F8121B4E6D
:1014A000EC120ABED003D002D001D0001207AE90D9
:1014B0000065120DCD7B017A00794B900065E0FC50
:1014C000A3E0FDA3E0FEA3E0FF900006120DCD7D9A
:1014D000067C007F31121711C3900042E0648094B3
:1014E000807BFF50067A00792B80047A00792D7D6D
:1014F000037C007F511215837B087A00E4FDFC7F9A
:101500003C121A457B097A00E4FDFC7F4D121A4516
:101510007B067A00E4FDFC7F5E121A457B077A00A9
:10152000E4FDFC7F6F121A459000057401F0A3746E
:1015300000F0A37450F0A37403F0900042E0FAA30B
:10154000E0FB7D027C007F57121AA67B0A7A00E43A
:10155000FDFCFF121A457B0B7A00E4FDFC7F1012A4
:101560001A45900045E0FB7A009000057401F0A355
:101570007400F0A37456F0A37402F0FD7C007F04A5
:03158000021AA6A6
:0F1E4400900044E064017006A3E0FF121D11221C
:061E6500E4FF2094010FD0
:011E6B002254
:101C560090003AE0A3F0121E6590003AEFF0A3E080
:101C66006401700C90003AE07006900045E004F0C4
:101C7600900045E0C394047480948040037401F09E
:011C8600223B
:071D0A00E4900044F07F03A8
:101D1100EF24FE600E14601224027014C296C29168
:101D2100D29522C296C291C29522D296D291D295D3
:011D3100228F
:101AA600900000EFF0A3ECF0A3EDF0AF03AE0290D0
:101AB600000D74FFF0A37400F0A3742FF0A3EEF0F2
:101AC600A3EFF0900005E0FBA3E0FAA3E0F9120F04
:101AD60052900008E024FFFFE434FFFE900005E08A
:101AE600FBA3E0FAA3E0F98F828E83E4120D8790C0
:0D1AF6000000E0FFA3E0FCA3E0FD0215836B
:10171100900000EFF0A3ECF0A3EDF0A3EBF0A3EA4F
:10172100F0A3E9F090000D74FFF0A37400F0A3742E
:1017310032F0900006E0FCA3E0FDA3E0FEA3E0FF91
:10174100900010120DCD900003E0FBA3E0FAA3E09E
:10175100F9120F52900003E0FBA3E0FAA3E0F99025
:101761000002742E120D87900003120D48B42E173B
:10177100900003E0FBA3E0FAA3E0F9900001120D51
:1017810048900003120D87900003E0FBA3E0FAA349
:10179100E0F9900004E4120D87900000E0FFA3E05F
:0717A100FCA3E0FD0215832B
:091E5300D287D286C286C2872222
:091E5C00C287C286D287D2862219
:071C8700AD07121E537F7828
:101C8E00E4FEEEC39408748094805015EF30E704A0
:101C9E00D2868002C286D287C287EF25E0FF0E80F1
:071CAE00E1D286D287C28754
:011CB500220C
:0D1DC20024B0FF121DCFE4FF121DCF7F10D3
:101DCF00121C87E4FF121C8EAF05121C8E021E5CC4
:0D1DDF0074372BF58274003AF583E493FF0E
:101DEC00121C877F40121C8EAF05121C8E021E5CCB
:021CE000AC074F
:101CE200E4FBEBC3940874809480501BEB121DC27A
:101CF200E4FAEAC39484748094805008AF04121DFD
:071D0200EC0A80EE0B80DB10
:011D090022B7
:101DA400D3EF9400EE940040147D657C18ED1D7013
:0D1DB400011CED4C70F7EF1F70E61E80E380
:011DC10022FF
:101E1800EF1FAA0670011E4A600FE4FDEDC3947B14
:091E28007480948050EA0D80F3EF
:011E3100228E
:101DFC00AC07ED24B0FF121DCFEC54F0C4540F44CB
:0C1E0C0010FF121DCFEC540FFF021DCF81
:1018C9007F057E00121E187FAE121DCF7F20121DCC
:1018D900CA7FB0121DCF7FC8121DC57F40121DCF10
:1018E9007F81121DCF7FDF121DCF7FA1121DCF7FF8
:1018F900A6121DCF7FA8121DCF7F3F121DCF7FA437
:10190900121DCF7FD3121DCFE4FF121DCF7FD51239
:101919001DCF7FF0121DCF7FD9121DCF7F22121D3F
:10192900CF7FDA121DCF7F12121DCF7FDB121DCFA1
:101939007F20121DCF7F8D121DCF7F14121DCF7FE7
:04194900AF021DCFFD
:101D3200E4FCECC3940874809480501BEC121DC226
:101D4200E4FBEBC39480748094805008E4FF121D7E
:071D5200EC0B80EE0C80DBBE
:011D59002267
:0A194D0090005AEFF090005CEBF000
:10195700E4900061F0A3F090005DE0FF5407700889
:10196700EF131313541F800A90005DE013131354F1
:101977001F04900063F0900063EDF090005DE0FFBE
:10198700900063E0FDC39F503E90005AE0FF121D98
:10199700FCE0FC90005CE0FFECC39F502290005EEF
:1019A700E0FBA3E0FAA3E0F9A3E475F001120DA9A7
:1019B70085F082F583120D48FF121DEC0C80D49040
:0719C7000063E004F080B4AE
:0119CE0022F6
:0A1A4500900000ECF0A3EDF0A907FB
:101A4F00E4FCAE02EB7805C333CE33CED8F9FBAA54
:101A5F0006AF01900000A3E0FD121DFCE4FCECC3F7
:101A6F00941074809480500B121DDF0BBB00010A81
:101A7F000C80EBAF01900000A3E004FD121DFCE40D
:101A8F00FCECC3941074809480500B121DDF0BBBC1
:061A9F0000010A0C80EBBF
:011AA500221E
:1015830090000AEFF0A3ECF0A3EDF0A3EBF0A3EAD5
:04159300F0A3E9F0E8
:10159700E4A3F0FCA3F090000DE0FBA3E0FAA3E0C6
:1015A700F9900011E0F582758300120D487003026F
:1015B700165D24E0900010F090000AE0D394787450
:1015C7008094804010E4F090000CE004F0700690E6
:1015D700000BE004F090000AE0FFA3A3E0FD121D5A
:1015E700FCE4FCECC39408748094805020900010B5
:1015F700E075F010A42CF582E435F0F583E582243C
:10160700B7F582E5833401121DE70C80D690000AF6
:10161700E0FFA3A3E004FD121DFCE4FCECC3940867
:10162700748094805020900010E075F010A42CF581
:1016370082E435F0F583E58224BFF582E583340142
:10164700121DE70C80D690000AE02408F0900011E4
:06165700E004F002159D05
:01165D00226A
:1007A700020B68E86480F8E933E83360110460F00D
:1007B700ED33EC337009E8FCE9FDEAFEEBFF2204B8
:1007C70060DED3EB9FEA9EE99DE8C2E78CF0C2F7B3
:1007D70095F0400CE8CCF8E9CDF9EACEFAEBCFFB7F
:1007E700120B3385D0F05804700320D5B3E804709A
:1007F700075002B2D5020B7292D5EC0460F7E4CC35
:10080700C0E0C398F8603B94186008400DD0E0FB47
:10081700020B4AE4FBFAC9FC8028E830E406E4C985
:10082700FBE4CAFCE830E305E4C9CACBFCE854079B
:100837006010F8C3E913F9EA13FAEB13FBEC13FCA6
:10084700D8F130F52FC3E49CFCEF9BFFEE9AFEED49
:1008570099FDD0E0FBEF4E4D4C701222DB03020BEB
:100867006FEC2CFCEF33FFEE33FEED33FDED30E79D
:10087700EB020B4AEF2BFFEE3AFEED39FDD0E0FB22
:1008870050130BBB0003020B72ED13FDEE13FEEFCB
:0808970013FFEC13FC020B4AF5
:10089F00EC4D6011E8497017ED33EC3304600DE453
:1008AF00FCFFFEFD22E933E8330470F8020B6812F7
:1008BF000B3358046009E4CC2481500628500902F8
:1008CF000B72284003020B6FC0E0EB4A7044B980F3
:1008DF0006D0E0FB020B5EEF4E701CBD8008EBFFF5
:1008EF00EAFEE9FD80EBE98DF0A4FEE5F002098850
:1008FF00E9CDF9EAFEEBFFEF89F0A4FCE5F0CE8934
:10090F00F0A42EFFE435F0CD89F0A42DFEE435F0F0
:10091F008067EF4E7005BD80D780C3EF8BF0A4AC1E
:10092F00F0EE8BF0A42CFCE435F0F8EF8AF0A42C59
:10093F00E5F038FCE433CB8DF0A42CFCE5F03BF86C
:10094F00EE8AF0A42CFCE5F038F8E433CF89F0A45C
:10095F002CFCE5F038CF3400CE89F0A42FFFE5F062
:10096F003EFEE433C98DF0A42EFEE5F039CD8AF0BA
:10097F00A42FFFE5F03EFEE43DFD33D0E0FB500732
:10098F000BBB000F020B72EC2CFCEF33FFEE33FEB0
:06099F00ED33FD020B4ADE
:1009A500020B72EC5D046005E859047003020B68E4
:1009B500120B33580460F6EC4860F2EC7004FDFE4F
:1009C500FF22C860DB2481C85009C3986002500625
:1009D500020B6F9850CAF582E9294B4A7005AB8224
:1009E500020B5E75F0007C1A7880C3EF9BEE9AEDE2
:1009F50099400DC3EF9BFFEE9AFEED99FDE842F09D
:100A0500DC23ACF0D0E0FFD0E0FED0E0FDAB8220EF
:100A1500E7101BEB60BAEC2CFCEF33FFEE33FEED79
:100A250033FD020B4AE803F830E705C0F075F00026
:100A3500EF2FFFEE33FEED33FD40B830E7C280AA5D
:100A450074F8CC6480CCC86480C8F58204604FC358
:100A5500EB9FF5F0EA9E42F0E99D42F0E89C45F0F7
:100A6500603C501DE5825FFFE582D313CB5BCBF481
:100A75002B5582FB50280ABA002409B900200880AA
:100A85001DE5825BFBE582D313CF5FCFF4C3132F44
:100A95005582FF50090EBE00050DBD00010CC3EBCC
:100AA5009FF5F0EA9E42F0E99D42F0E89C45F06032
:090AB50007CC4820E701B3EC2254
:100ABE0075F020800E75F010800575F0087D007EB3
:100ACE00007F003392D530D503120DBFEC334010AA
:100ADE00EF33FFEE33FEED33FDEC33FCD5F0ED22BC
:0E0AEE00E5F0247EA2D513CC92E7CDCEFF22F8
:100AFC00EDD2E7CD33EC3392D524814006E4FFFEF2
:100B0C00FDFC22FCE4CFCECDCC24E0501174FF8050
:100B1C00EDC3CC13CCCD13CDCE13CECF13CF0470ED
:070B2C00F030D5DE020DBF21
:100EED00E508240DF582E43400F583E00508229031
:100EFD00000A30070390000DE475F001120DD902C0
:100F0D000D2F2000E97F2ED2008018EF540F249072
:100F1D00D43440D4FF30040BEF24BFB41A00500377
:100F2D002461FFE50960021509050CE50C70020549
:100F3D000B30070E90000AE475F001120DD9EF0287
:100F4D000D75021D5A7403D2078003E4C207F5081C
:100F5D0090000A120DF0E4F509F50BF50CE50960AA
:100F6D00077F20120F3080F5750AFFC201C200C243
:100F7D0002C203C205C206C208120EFCFF700D307C
:100F8D0007057F00120F41AF0CAE0B22B4255FC2D7
:100F9D00D5C204120EFCFF24D0B40A00501A75F00D
:100FAD000A780930D50508B6FF0106C6A426F62035
:100FBD00D5047002D20380D924CFB41A00EF5004A7
:100FCD00C2E5D204021233D20180C6D20080C0D253
:100FDD000280BCD2D580BAD20580B47F20120F30EA
:100FED002002077401B5090040F1120EEDFF120F3A
:100FFD0030020F6AD208D2068095120EEDFB120E4A
:10100D00EDFA120EEDF94A4B700679317A137BFF2A
:10101D0020022EE509602A7E008E82758300120D56
:10102D004860060EEE650A70F0C2D5EBC0E0EAC06E
:10103D00E0E9C0E0EE121294D0E0F9D0E0FAD0E091
:10104D00FB120D2FFF60AAEBC0E0EAC0E0E9C0E0A3
:10105D00120F30D0E02401F9D0E03400FAD0E0FBDB
:10106D00E50A0460DCD50AD98087D20280A212126B
:10107D007660F7E50A700104120B7DA90A600DE593
:10108D000A600914F50A12131EEF60F3EA30E70245
:10109D00F404C3995079EAF4250A0430E701E40415
:1010AD00F50A800D12127660C1EA050A250A120BA7
:1010BD007DEA900039F030E701E4250A04D50A04F1
:1010CD0020050114121294E4C0E012131E90003991
:1010DD00E0601320E70714F0120F18802204F0D0FF
:1010ED00E014C0E07F00120F18E50A6007120F0F21
:1010FD00150A800B300503120F0FD0E0020F6AD0D6
:10110D00E00480C4121276609EE50A04120B7D90F5
:10111D000039EAF0E50A20050260010424041212E8
:01112D00942D
:10112E0074FF04C0E012131E120F18E50A20050208
:10113E006003120F0FD0E0B50AE87F45120F229020
:10114E000039E07F2B30E7047F2DF404C0E0120F4E
:10115E0030D0E075F00A84C0F0120F19D0E0120FF3
:10116E0019020F6A791080027908C206C208800837
:10117E00D2D5790A8004790AC2D5E50A047002F53F
:10118E000AE4FAFDFEFF120EEDFC7B08200113129D
:10119E000EEDFD7B1030000A120EEDFE120EEDFF6D
:1011AE007B20EC3382D592D55013C3E43000069FDA
:1011BE00FFE49EFEE42001039DFDE49CFCE4CBF8DD
:1011CE00C201EC700CCFCECDCCE824F8F870F380D1
:1011DE0017C3EF33FFEE33FEED33FDEC33FCEB3391
:1011EE00FB994002FB0FD8E9EB300105F8D0E0C4C3
:1011FE0048B201C0E00AEC4D4E4F78207B0070C221
:10120E00EAB50A0040BCC0E0121296D0F0D0E02041
:10121E000104C4C0E0C4B201C0F0120F19D0F0D561
:10122E00F0EB020F6A120DF91007531172580FD816
:10123E004C0FD44211764F117E44117E490FED436F
:10124E0011845510B146111145107B471351500FA3
:10125E00DC2D0FE02E10032B0FE423100120133A88
:10126E002A0F9C4800000FFBE50AB4FF03750A061F
:10127E00120EEDFC120EEDFD120EEDFE120EEDFF36
:10128E00900032020BBA790AA2D520031430050958
:10129E00B910020404B9080104A2D52006025001B7
:1012AE00042002689202B509005034C0E07F20305D
:1012BE0003197F30A20272067205500F1212EDC290
:1012CE0002C206C205C2087F30800F300503E9C096
:1012DE00E0120F30300503D0E0F9D0E0B509CC3084
:1012EE0005177F30B9100C120F307F583004077F6E
:1012FE00788003B90803120F303002057F2D020FDC
:10130E00307F202008F87F2B2006F322920280CF18
:10131E007F00B40700500B2432F582E43400F583CD
:10132E00E0FF22286E756C6C2900D201120EED3092
:10133E0001F8C201780930D50108F6020F9C2D5034
:10134E00434958120EED2403B405004001E49013F6
:10135E004C93120F21743A120F21D2037509040215
:02136E001172FA
:100B3300E9D2E7C933E833F892D5EDD2E7CD33EC08
:070B430033FC5002B2D52281
:100B4A00EC30E7100FBF000C0EBE00080DBD00040C
:100B5A000BEB6014A2D5EB13FCED92E7FD2274FFB8
:100B6A00FCFDFEFF22E480F8A2D574FF13FC7D8011
:030B7A00E480EF25
:100B7D00F920E73624F950037907E4F42402FBE564
:100B8D0082158270021583DBF6E024FB501BE960B1
:100B9D0014E4F0E582158270021583E004F0B40AC6
:0D0BAD0008E4F0D9EE7401F00A22C2D5224E
:100BBA00ED33EC3392D5FA602AB4FF33EDC2E77B0A
:100BCA00FF60067A0B79DFE4227A0B79E820D504F4
:100BDA007A0B79E3224E614E002B494E46002D498D
:100BEA004E4600E47A08F0A3DAFC7B00740722C0C0
:100BFA0083C082ECC0E0EDC0E0EEC0E0EFC0E0EA06
:100C0A0075F010A4CAABF075F04DA42BFBE435F0D7
:100C1A00FCEA2410FAEB34C5FBEC34D9FCEDC2E74C
:100C2A00FF75F056A4F42411C5F0F434C58FF0A46E
:100C3A002AE5F03BE43CF020E714120CEFD0E0FF89
:100C4A00D0E0FED0E0FDD0E0FC1209A88014F40444
:100C5A00120CEFD0E0FFD0E0FED0E0FDD0E0FC12B5
:100C6A00089FD082D083E0FAEDD2E7CD33EC33246B
:100C7A0082FBE4C3CF33CFCE33CECD33CD33DBF3D8
:100C8A007B0775F00A846004F0A31B0AE5F0F0A361
:100C9A008FF0740AA4FFACF08EF0740AA42CFEAC98
:100CAA00F050010C8DF0740AA42CFDE435F0F0A389
:050CBA00DBDE740722DF
:100CBF003F8000004120000042C80000447A00003D
:100CCF00461C400047C35000497424004B189680BF
:100CDF004CBEBC205A0E1BCA6753C21C749DC5AEB6
:100CEF00FB60065407601C2323120D1DEB54386064
:100CFF0009120D09120D1812089FECF8EDF9EEFA12
:100D0F00EFCB22EB120D1880F1543803241C900CFA
:100D1F00BFFE93FC0EEE93FD0EEE930ECE93FF22CD
:0300000002183DA6
:0C183D00787FE4F6D8FD75812102188444
:100D2F00BB010689828A83E0225002E722BBFE02C2
:090D3F00E32289828A83E49322F5
:100D4800BB010CE58229F582E5833AF583E0225060
:100D580006E92582F8E622BBFE06E92582F8E222AA
:0D0D6800E58229F582E5833AF583E49322C4
:100D7500BB010689828A83F0225002F722BBFE015D
:020D8500F32257
:100D8700F8BB010DE58229F582E5833AF583E8F0A2
:100D9700225006E92582C8F622BBFE05E92582C84E
:020DA700F22236
:100DA900A3F8E0C5F025F0F0E582158270021583FD
:060DB900E0C838F0E8225A
:101B4E00C2D5E830E70FB2D5E4C39BFBE49AFAE4C2
:101B5E0099F9E498F8EC30E717B2D5121B84120EFF
:101B6E005BE4C39BFBE49AFAE499F9E498F88003EA
:101B7E00120E5B30D50DE4C39FFFE49EFEE49DFD87
:041B8E00E49CFC22B5
:0E0DBF00C3E49FFFE49EFEE49DFDE49CFC2245
:0C0DCD00ECF0A3EDF0A3EEF0A3EFF02299
:100DD900F8E0FBA3A3E0F925F0F0E58215827002A3
:070DE9001583E0FA38F02247
:090DF000EBF0A3EAF0A3E9F02204
:100DF900D083D082F8E4937012740193700DA3A389
:100E090093F8740193F5828883E47374029368609C
:060E1900EFA3A3A380DF9C
:101D5A00EFB40A07740D121D65740A309811A89918
:101D6A00B8130CC2983098FDA899C298B811F630E9
:071D7A0099FDC299F59922C1
:101849000219CFE493A3F8E493A34003F68001F2CD
:1018590008DFF48029E493A3F85407240CC8C333A0
:10186900C4540F4420C8834004F456800146F6DF6F
:10187900E4800B0102040810204080901D81E47E61
:10188900019360BCA3FF543F30E509541FFEE49364
:10189900A360010ECF54C025E060A840B8E493A32B
:1018A900FAE493A3F8E493A3C8C582C8CAC583CA56
:1018B900F0A3C8C582C8CAC583CADFE9DEE780BE0E
:011DA300003F
:100E1F0075F008758200EF2FFFEE33FECD33CDCC8A
:100E2F0033CCC58233C5829BED9AEC99E58298400D
:100E3F000CF582EE9BFEED9AFDEC99FC0FD5F0D6EA
:100E4F00E4CEFBE4CDFAE4CCF9A88222B800C1B914
:100E5F000059BA002DEC8BF084CFCECDFCE5F0CB52
:100E6F00F97818EF2FFFEE33FEED33FDEC33FCEB8B
:100E7F0033FB10D703994004EB99FB0FD8E5E4F946
:100E8F00FA227818EF2FFFEE33FEED33FDEC33FC33
:100E9F00C933C910D7059BE99A4007EC9BFCE99A27
:100EAF00F90FD8E0E4C9FAE4CCFB2275F010EF2F6C
:100EBF00FFEE33FEED33FDCC33CCC833C810D7076C
:100ECF009BEC9AE899400AED9BFDEC9AFCE899F8A7
:0E0EDF000FD5F0DAE4CDFBE4CCFAE4C8F9223A
:00000001FF
